{
  "_format": "hh-sol-artifact-1",
  "contractName": "Voting",
  "sourceName": "contracts/Voting.sol",
  "abi": [
    {
      "inputs": [],
      "stateMutability": "nonpayable",
      "type": "constructor"
    },
    {
      "inputs": [
        {
          "internalType": "uint256",
          "name": "",
          "type": "uint256"
        }
      ],
      "name": "candidates",
      "outputs": [
        {
          "internalType": "string",
          "name": "",
          "type": "string"
        }
      ],
      "stateMutability": "view",
      "type": "function"
    },
    {
      "inputs": [],
      "name": "getVotes",
      "outputs": [
        {
          "internalType": "uint256[4]",
          "name": "",
          "type": "uint256[4]"
        }
      ],
      "stateMutability": "view",
      "type": "function"
    },
    {
      "inputs": [],
      "name": "getWinner",
      "outputs": [
        {
          "internalType": "uint256",
          "name": "",
          "type": "uint256"
        }
      ],
      "stateMutability": "view",
      "type": "function"
    },
    {
      "inputs": [
        {
          "internalType": "string",
          "name": "voterID",
          "type": "string"
        },
        {
          "internalType": "uint256",
          "name": "candidateIndex",
          "type": "uint256"
        }
      ],
      "name": "vote",
      "outputs": [],
      "stateMutability": "nonpayable",
      "type": "function"
    },
    {
      "inputs": [
        {
          "internalType": "string",
          "name": "",
          "type": "string"
        }
      ],
      "name": "voters",
      "outputs": [
        {
          "internalType": "bool",
          "name": "",
          "type": "bool"
        }
      ],
      "stateMutability": "view",
      "type": "function"
    },
    {
      "inputs": [
        {
          "internalType": "uint256",
          "name": "",
          "type": "uint256"
        }
      ],
      "name": "votes",
      "outputs": [
        {
          "internalType": "uint256",
          "name": "",
          "type": "uint256"
        }
      ],
      "stateMutability": "view",
      "type": "function"
    }
  ],
  "bytecode": "0x608060405260405180608001604052806040518060400160405280600481526020017f416a61790000000000000000000000000000000000000000000000000000000081525081526020016040518060400160405280600581526020017f416c69636500000000000000000000000000000000000000000000000000000081525081526020016040518060400160405280600581526020017f416b61736800000000000000000000000000000000000000000000000000000081525081526020016040518060400160405280600581526020017f41726a756e00000000000000000000000000000000000000000000000000000081525081525060009060046200010b929190620001db565b503480156200011957600080fd5b5060007f4100000000000000000000000000000000000000000000000000000000000000905060005b6014811015620001d3576000600483604051602001620001639190620003a5565b604051602081830303815290604052604051620001819190620003c2565b908152602001604051809103902060006101000a81548160ff02191690831515021790555060018260f81c620001b89190620003f1565b60f81b91508080620001ca90620004de565b91505062000142565b505062000594565b826004810192821562000222579160200282015b82811115620002215782518290805190602001906200021092919062000235565b5091602001919060010190620001ef565b5b509050620002319190620002c6565b5090565b8280546200024390620004a8565b90600052602060002090601f016020900481019282620002675760008555620002b3565b82601f106200028257805160ff1916838001178555620002b3565b82800160010185558215620002b3579182015b82811115620002b257825182559160200191906001019062000295565b5b509050620002c29190620002ee565b5090565b5b80821115620002ea5760008181620002e091906200030d565b50600101620002c7565b5090565b5b8082111562000309576000816000905550600101620002ef565b5090565b5080546200031b90620004a8565b6000825580601f106200032f575062000350565b601f0160209004906000526020600020908101906200034f9190620002ee565b5b50565b6200036862000362826200042f565b6200052c565b82525050565b60006200037b82620003db565b620003878185620003e6565b93506200039981856020860162000472565b80840191505092915050565b6000620003b3828462000353565b60018201915081905092915050565b6000620003d082846200036e565b915081905092915050565b600081519050919050565b600081905092915050565b6000620003fe8262000465565b91506200040b8362000465565b92508260ff0382111562000424576200042362000536565b5b828201905092915050565b60007fff0000000000000000000000000000000000000000000000000000000000000082169050919050565b6000819050919050565b600060ff82169050919050565b60005b838110156200049257808201518184015260208101905062000475565b83811115620004a2576000848401525b50505050565b60006002820490506001821680620004c157607f821691505b60208210811415620004d857620004d762000565565b5b50919050565b6000620004eb826200045b565b91507fffffffffffffffffffffffffffffffffffffffffffffffffffffffffffffffff82141562000521576200052062000536565b5b600182019050919050565b6000819050919050565b7f4e487b7100000000000000000000000000000000000000000000000000000000600052601160045260246000fd5b7f4e487b7100000000000000000000000000000000000000000000000000000000600052602260045260246000fd5b610d9f80620005a46000396000f3fe608060405234801561001057600080fd5b50600436106100625760003560e01c80630dc96015146100675780633477ee2e1461008557806353fa2e64146100b55780635df81330146100e55780638e7ea5b214610115578063a638580314610133575b600080fd5b61006f61014f565b60405161007c9190610923565b60405180910390f35b61009f600480360381019061009a9190610751565b61019a565b6040516100ac9190610959565b60405180910390f35b6100cf60048036038101906100ca91906106bc565b61023d565b6040516100dc919061093e565b60405180910390f35b6100ff60048036038101906100fa9190610751565b610273565b60405161010c91906109fb565b60405180910390f35b61011d61028e565b60405161012a91906109fb565b60405180910390f35b61014d600480360381019061014891906106fd565b610343565b005b61015761061d565b6005600480602002604051908101604052809291908260048015610190576020028201915b81548152602001906001019080831161017c575b5050505050905090565b600081600481106101aa57600080fd5b0160009150905080546101bc90610b18565b80601f01602080910402602001604051908101604052809291908181526020018280546101e890610b18565b80156102355780601f1061020a57610100808354040283529160200191610235565b820191906000526020600020905b81548152906001019060200180831161021857829003601f168201915b505050505081565b6004818051602081018201805184825260208301602085012081835280955050505050506000915054906101000a900460ff1681565b6005816004811061028357600080fd5b016000915090505481565b600080600090506000805b600481101561033a5782600582600481106102dd577f4e487b7100000000000000000000000000000000000000000000000000000000600052603260045260246000fd5b01541115610327576005816004811061031f577f4e487b7100000000000000000000000000000000000000000000000000000000600052603260045260246000fd5b015492508091505b808061033290610b7b565b915050610299565b50809250505090565b6001825114610387576040517f08c379a000000000000000000000000000000000000000000000000000000000815260040161037e906109db565b60405180910390fd5b7f4100000000000000000000000000000000000000000000000000000000000000826000815181106103e2577f4e487b7100000000000000000000000000000000000000000000000000000000600052603260045260246000fd5b602001015160f81c60f81b7effffffffffffffffffffffffffffffffffffffffffffffffffffffffffffff1916101580156104a357507f540000000000000000000000000000000000000000000000000000000000000082600081518110610473577f4e487b7100000000000000000000000000000000000000000000000000000000600052603260045260246000fd5b602001015160f81c60f81b7effffffffffffffffffffffffffffffffffffffffffffffffffffffffffffff191611155b6104e2576040517f08c379a00000000000000000000000000000000000000000000000000000000081526004016104d9906109bb565b60405180910390fd5b6004826040516104f2919061090c565b908152602001604051809103902060009054906101000a900460ff161561054e576040517f08c379a00000000000000000000000000000000000000000000000000000000081526004016105459061099b565b60405180910390fd5b60048110610591576040517f08c379a00000000000000000000000000000000000000000000000000000000081526004016105889061097b565b60405180910390fd5b60016004836040516105a3919061090c565b908152602001604051809103902060006101000a81548160ff02191690831515021790555060058160048110610602577f4e487b7100000000000000000000000000000000000000000000000000000000600052603260045260246000fd5b01600081548092919061061490610b7b565b91905055505050565b6040518060800160405280600490602082028036833780820191505090505090565b600061065261064d84610a3b565b610a16565b90508281526020810184848401111561066a57600080fd5b610675848285610ad6565b509392505050565b600082601f83011261068e57600080fd5b813561069e84826020860161063f565b91505092915050565b6000813590506106b681610d52565b92915050565b6000602082840312156106ce57600080fd5b600082013567ffffffffffffffff8111156106e857600080fd5b6106f48482850161067d565b91505092915050565b6000806040838503121561071057600080fd5b600083013567ffffffffffffffff81111561072a57600080fd5b6107368582860161067d565b9250506020610747858286016106a7565b9150509250929050565b60006020828403121561076357600080fd5b6000610771848285016106a7565b91505092915050565b600061078683836108ee565b60208301905092915050565b61079b81610a76565b6107a58184610a99565b92506107b082610a6c565b8060005b838110156107e15781516107c8878261077a565b96506107d383610a8c565b9250506001810190506107b4565b505050505050565b6107f281610ac0565b82525050565b600061080382610a81565b61080d8185610aa4565b935061081d818560208601610ae5565b61082681610c51565b840191505092915050565b600061083c82610a81565b6108468185610ab5565b9350610856818560208601610ae5565b80840191505092915050565b600061086f601883610aa4565b915061087a82610c62565b602082019050919050565b6000610892601883610aa4565b915061089d82610c8b565b602082019050919050565b60006108b5602583610aa4565b91506108c082610cb4565b604082019050919050565b60006108d8602483610aa4565b91506108e382610d03565b604082019050919050565b6108f781610acc565b82525050565b61090681610acc565b82525050565b60006109188284610831565b915081905092915050565b60006080820190506109386000830184610792565b92915050565b600060208201905061095360008301846107e9565b92915050565b6000602082019050818103600083015261097381846107f8565b905092915050565b6000602082019050818103600083015261099481610862565b9050919050565b600060208201905081810360008301526109b481610885565b9050919050565b600060208201905081810360008301526109d4816108a8565b9050919050565b600060208201905081810360008301526109f4816108cb565b9050919050565b6000602082019050610a1060008301846108fd565b92915050565b6000610a20610a31565b9050610a2c8282610b4a565b919050565b6000604051905090565b600067ffffffffffffffff821115610a5657610a55610c22565b5b610a5f82610c51565b9050602081019050919050565b6000819050919050565b600060049050919050565b600081519050919050565b6000602082019050919050565b600081905092915050565b600082825260208201905092915050565b600081905092915050565b60008115159050919050565b6000819050919050565b82818337600083830152505050565b60005b83811015610b03578082015181840152602081019050610ae8565b83811115610b12576000848401525b50505050565b60006002820490506001821680610b3057607f821691505b60208210811415610b4457610b43610bf3565b5b50919050565b610b5382610c51565b810181811067ffffffffffffffff82111715610b7257610b71610c22565b5b80604052505050565b6000610b8682610acc565b91507fffffffffffffffffffffffffffffffffffffffffffffffffffffffffffffffff821415610bb957610bb8610bc4565b5b600182019050919050565b7f4e487b7100000000000000000000000000000000000000000000000000000000600052601160045260246000fd5b7f4e487b7100000000000000000000000000000000000000000000000000000000600052602260045260246000fd5b7f4e487b7100000000000000000000000000000000000000000000000000000000600052604160045260246000fd5b6000601f19601f8301169050919050565b7f496e76616c69642063616e64696461746520696e6465782e0000000000000000600082015250565b7f566f7465722068617320616c726561647920766f7465642e0000000000000000600082015250565b7f566f746572204944206d757374206265206265747765656e2027412720616e6460008201527f202754272e000000000000000000000000000000000000000000000000000000602082015250565b7f566f746572204944206d75737420626520612073696e676c652063686172616360008201527f7465722e00000000000000000000000000000000000000000000000000000000602082015250565b610d5b81610acc565b8114610d6657600080fd5b5056fea264697066735822122068dbb6fb58debd76c5519a1aec04cf92179cdd84e568555e722c56290a4f4e7564736f6c63430008030033",
  "linkReferences": {},
  "deployedLinkReferences": {}
}